{"abi":[{"type":"constructor","inputs":[],"stateMutability":"nonpayable"},{"type":"function","name":"deployBountyContract","inputs":[],"outputs":[{"name":"bountyContract","type":"address","internalType":"address"}],"stateMutability":"nonpayable"},{"type":"function","name":"implementation","inputs":[],"outputs":[{"name":"","type":"address","internalType":"address"}],"stateMutability":"view"},{"type":"event","name":"BountyContractDeployed","inputs":[{"name":"owner","type":"address","indexed":true,"internalType":"address"},{"name":"bountyContract","type":"address","indexed":true,"internalType":"address"}],"anonymous":false},{"type":"error","name":"FailedDeployment","inputs":[]},{"type":"error","name":"InsufficientBalance","inputs":[{"name":"balance","type":"uint256","internalType":"uint256"},{"name":"needed","type":"uint256","internalType":"uint256"}]}],"bytecode":{"object":"0x60a060405234801561000f575f80fd5b5060405161001c90610047565b604051809103905ff080158015610035573d5f803e3d5ffd5b506001600160a01b0316608052610054565b6115dc8061029083390190565b60805161021f6100715f395f8181603d01526084015261021f5ff3fe608060405234801561000f575f80fd5b5060043610610034575f3560e01c80635c60da1b14610038578063ed76c72c1461007b575b5f80fd5b61005f7f000000000000000000000000000000000000000000000000000000000000000081565b6040516001600160a01b03909116815260200160405180910390f35b61005f5f6100b17f00000000000000000000000000000000000000000000000000000000000000006001600160a01b0316610140565b60405163189acdbd60e31b81523360048201529091506001600160a01b0382169063c4d66de8906024015f604051808303815f87803b1580156100f2575f80fd5b505af1158015610104573d5f803e3d5ffd5b50506040516001600160a01b03841692503391507f79c866e31d30067ee89f66ff5abb0a63b09eaadc811b2444426a26589b8f5570905f90a390565b5f61014b825f610151565b92915050565b5f814710156101805760405163cf47918160e01b81524760048201526024810183905260440160405180910390fd5b763d602d80600a3d3981f3363d3d373d3d3d363d730000008360601b60e81c175f526e5af43d82803e903d91602b57fd5bf38360781b176020526037600983f090506001600160a01b03811661014b5760405163b06ebf3d60e01b815260040160405180910390fdfea264697066735822122009908536f83fafde4f7c6f68dec73ecca9c4166db628fe571293e9301a1eb47764736f6c63430008180033608060405234801561000f575f80fd5b5060015f556115bb806100215f395ff3fe6080604052600436106100a5575f3560e01c8063a19f64f811610062578063a19f64f814610186578063bc197c8114610199578063c4d66de8146101e0578063cdfbea58146101ff578063e2164d99146102b8578063f23a6e61146102d7575f80fd5b80630cf20cc9146100a9578063299e56a9146100ca5780633af1c979146100fe5780638bfd03c11461011d5780638da5cb5b1461013057806398ff807514610167575b5f80fd5b3480156100b4575f80fd5b506100c86100c3366004611115565b610303565b005b3480156100d5575f80fd5b506100e96100e436600461113d565b610404565b60405190151581526020015b60405180910390f35b348015610109575f80fd5b506100c861011836600461115d565b6105ff565b6100c861012b3660046111be565b610740565b34801561013b575f80fd5b5060015461014f906001600160a01b031681565b6040516001600160a01b0390911681526020016100f5565b348015610172575f80fd5b506100c861018136600461113d565b6108b4565b6100c861019436600461113d565b610a46565b3480156101a4575f80fd5b506101c76101b336600461128d565b63bc197c8160e01b98975050505050505050565b6040516001600160e01b031990911681526020016100f5565b3480156101eb575f80fd5b506100c86101fa36600461113d565b610ad8565b34801561020a575f80fd5b5061026b61021936600461113d565b600260208190525f91825260409091208054600182015492820154600383015460048401546005909401546001600160a01b03841695600160a01b90940460ff16946001600160601b03909416939087565b604080516001600160a01b03909816885295151560208801526001600160601b03909416948601949094526060850191909152608084015260a083019190915260c082015260e0016100f5565b3480156102c3575f80fd5b506100c86102d2366004611340565b610b8f565b3480156102e2575f80fd5b506101c76102f13660046113a1565b63f23a6e6160e01b9695505050505050565b6001546001600160a01b031633146103365760405162461bcd60e51b815260040161032d90611414565b60405180910390fd5b6001600160a01b038083165f9081526002602052604090205483911661036e5760405162461bcd60e51b815260040161032d90611437565b6001600160a01b0383165f90815260026020526040902060058101548311156103d05760405162461bcd60e51b8152602060048201526014602482015273496e73756666696369656e742062616c616e636560601b604482015260640161032d565b82816005015f8282546103e3919061146e565b90915550506001546103fe906001600160a01b031684610ce9565b50505050565b6001600160a01b038181165f908152600260208181526040808420815160e0810183528154968716808252600160a01b90970460ff1615159381019390935260018101546001600160601b03169183019190915291820154606082015260038201546080820152600482015460a082015260059091015460c08201529091158061048f575080602001515b1561049c57505f92915050565b5f6104a961ea6048611487565b90508160a001518111156104c057505f9392505050565b5f846001600160a01b0316638c0e83496040518163ffffffff1660e01b8152600401602060405180830381865afa1580156104fd573d5f803e3d5ffd5b505050506040513d601f19601f82011682018060405250810190610521919061149e565b905082604001516001600160601b0316811161054157505f949350505050565b60405163b564434160e01b8152600481018290525f906001600160a01b0387169063b564434190602401602060405180830381865afa158015610586573d5f803e3d5ffd5b505050506040513d601f19601f820116820180604052508101906105aa919061149e565b90508042106105be57505f95945050505050565b5f8460600151846105cf9190611487565b90505f6105df3a62030d40611487565b6105e990836114b5565b60c0909601519590951015979650505050505050565b6001546001600160a01b031633146106295760405162461bcd60e51b815260040161032d90611414565b6001600160a01b038087165f908152600260205260409020548791166106615760405162461bcd60e51b815260040161032d90611437565b6001600160a01b0386166106ab5760405162461bcd60e51b8152602060048201526011602482015270125b9d985b1a59081c9958da5c1a595b9d607a1b604482015260640161032d565b8383106106eb5760405162461bcd60e51b815260206004820152600e60248201526d125b9d985b1a59081c995dd85c9960921b604482015260640161032d565b506001600160a01b039586165f9081526002602081905260409091208054951515600160a01b026001600160a81b03199096169690971695909517939093178555928401556003830191909155600490910155565b6001546001600160a01b0316331461076a5760405162461bcd60e51b815260040161032d90611414565b8282106107aa5760405162461bcd60e51b815260206004820152600e60248201526d125b9d985b1a59081c995dd85c9960921b604482015260640161032d565b6001600160a01b0384166107f45760405162461bcd60e51b8152602060048201526011602482015270125b9d985b1a59081c9958da5c1a595b9d607a1b604482015260640161032d565b6040805160e0810182526001600160a01b0395861681525f6020808301828152838501838152606085019889526080850197885260a085019687523460c086019081529a8a168452600292839052949092209251835492511515600160a01b026001600160a81b031990931698169790971717815590516001820180546001600160601b03929092166bffffffffffffffffffffffff19909216919091179055925193830193909355516003820155905160048201559051600590910155565b6108bc610d5e565b5f6123285a6108cb919061146e565b90505f806108d884610d86565b6001600160a01b0386165f81815260026020819052604091829020908101549151630d9778e560e11b815260048101869052602481019290925293955091935090631b2ef1ca9084906044015f604051808303818588803b15801561093b575f80fd5b505af115801561094d573d5f803e3d5ffd5b5050506003830154604051637921219560e11b81526001600160a01b038916935063f242432a9250610987913091339189916004016114c8565b5f604051808303815f87803b15801561099e575f80fd5b505af11580156109b0573d5f803e3d5ffd5b505050506001810180546bffffffffffffffffffffffff19166001600160601b0385161790555f3a6152085a6109e6908861146e565b6109f091906114b5565b6109fa9190611487565b90505f838360050154610a0d919061146e565b905080821115610a1b578091505b610a25828261146e565b6005840155610a343383610ce9565b505050505050610a4360015f55565b50565b6001546001600160a01b03163314610a705760405162461bcd60e51b815260040161032d90611414565b6001600160a01b038181165f9081526002602052604090205416610aa65760405162461bcd60e51b815260040161032d90611437565b6001600160a01b0381165f9081526002602052604081206005018054349290610ad09084906114b5565b909155505050565b6001546001600160a01b031615610b275760405162461bcd60e51b8152602060048201526013602482015272105b1c9958591e481a5b9a5d1a585b1a5e9959606a1b604482015260640161032d565b6001600160a01b038116610b6d5760405162461bcd60e51b815260206004820152600d60248201526c24b73b30b634b21037bbb732b960991b604482015260640161032d565b600180546001600160a01b0319166001600160a01b0392909216919091179055565b6001546001600160a01b03163314610bb95760405162461bcd60e51b815260040161032d90611414565b5f5b82811015610ce2575f856001600160a01b031662fdd58e30878786818110610be557610be56114ff565b6040516001600160e01b031960e087901b1681526001600160a01b0390941660048501526020029190910135602483015250604401602060405180830381865afa158015610c35573d5f803e3d5ffd5b505050506040513d601f19601f82011682018060405250810190610c59919061149e565b90508015610cd957856001600160a01b031663f242432a3085888887818110610c8457610c846114ff565b90506020020135856040518563ffffffff1660e01b8152600401610cab94939291906114c8565b5f604051808303815f87803b158015610cc2575f80fd5b505af1158015610cd4573d5f803e3d5ffd5b505050505b50600101610bbb565b5050505050565b5f826001600160a01b0316826040515f6040518083038185875af1925050503d805f8114610d32576040519150601f19603f3d011682016040523d82523d5f602084013e610d37565b606091505b5050905080610d59576040516312171d8360e31b815260040160405180910390fd5b505050565b60025f5403610d8057604051633ee5aeb560e01b815260040160405180910390fd5b60025f55565b5f805f6060610d9485610dc5565b919650945090925090508082610dbd5760405162461bcd60e51b815260040161032d9190611513565b505050915091565b6001600160a01b038181165f908152600260208181526040808420815160e0810183528154968716808252600160a01b90970460ff1615159381019390935260018101546001600160601b0316918301919091529182015460608083019190915260038301546080830152600483015460a083015260059092015460c082015291928392839291610e805750506040805180820190915260098152684e6f20626f756e747960b81b60208201525f93508392508291506110f3565b806020015115610ebe57505060408051808201909152600d81526c109bdd5b9d1e481c185d5cd959609a1b60208201525f93508392508291506110f3565b485f610ecc61ea6083611487565b90508260a00151811115610f23575f805f6040518060400160405280601781526020017f417274696661637420707269636520746f6f206869676800000000000000000081525096509650965096505050506110f3565b876001600160a01b0316638c0e83496040518163ffffffff1660e01b8152600401602060405180830381865afa158015610f5f573d5f803e3d5ffd5b505050506040513d601f19601f82011682018060405250810190610f83919061149e565b955082604001516001600160601b03168611610fd1575f805f6040518060400160405280600c81526020016b2737903732bb903a37b5b2b760a11b81525096509650965096505050506110f3565b6060830151610fe09082611487565b94505f610ff03a62030d40611487565b610ffa90876114b5565b9050808460c001511015611035575f8787604051806060016040528060268152602001611560602691399750975097509750505050506110f3565b60405163b564434160e01b8152600481018890525f906001600160a01b038b169063b564434190602401602060405180830381865afa15801561107a573d5f803e3d5ffd5b505050506040513d601f19601f8201168201806040525081019061109e919061149e565b90508042106110d957505060408051808201909152600b81526a135a5b9d0818db1bdcd95960aa1b60208201525f975093506110f392505050565b505060408051602081019091525f81526001975093505050505b9193509193565b80356001600160a01b0381168114611110575f80fd5b919050565b5f8060408385031215611126575f80fd5b61112f836110fa565b946020939093013593505050565b5f6020828403121561114d575f80fd5b611156826110fa565b9392505050565b5f805f805f8060c08789031215611172575f80fd5b61117b876110fa565b9550611189602088016110fa565b94506040870135801515811461119d575f80fd5b959894975094956060810135955060808101359460a0909101359350915050565b5f805f805f60a086880312156111d2575f80fd5b6111db866110fa565b94506111e9602087016110fa565b94979496505050506040830135926060810135926080909101359150565b5f8083601f840112611217575f80fd5b50813567ffffffffffffffff81111561122e575f80fd5b6020830191508360208260051b8501011115611248575f80fd5b9250929050565b5f8083601f84011261125f575f80fd5b50813567ffffffffffffffff811115611276575f80fd5b602083019150836020828501011115611248575f80fd5b5f805f805f805f8060a0898b0312156112a4575f80fd5b6112ad896110fa565b97506112bb60208a016110fa565b9650604089013567ffffffffffffffff808211156112d7575f80fd5b6112e38c838d01611207565b909850965060608b01359150808211156112fb575f80fd5b6113078c838d01611207565b909650945060808b013591508082111561131f575f80fd5b5061132c8b828c0161124f565b999c989b5096995094979396929594505050565b5f805f8060608587031215611353575f80fd5b61135c856110fa565b9350602085013567ffffffffffffffff811115611377575f80fd5b61138387828801611207565b90945092506113969050604086016110fa565b905092959194509250565b5f805f805f8060a087890312156113b6575f80fd5b6113bf876110fa565b95506113cd602088016110fa565b94506040870135935060608701359250608087013567ffffffffffffffff8111156113f6575f80fd5b61140289828a0161124f565b979a9699509497509295939492505050565b6020808252600990820152682737ba1037bbb732b960b91b604082015260600190565b6020808252600990820152684e6f20626f756e747960b81b604082015260600190565b634e487b7160e01b5f52601160045260245ffd5b818103818111156114815761148161145a565b92915050565b80820281158282048414176114815761148161145a565b5f602082840312156114ae575f80fd5b5051919050565b808201808211156114815761148161145a565b6001600160a01b0394851681529290931660208301526040820152606081019190915260a0608082018190525f9082015260c00190565b634e487b7160e01b5f52603260045260245ffd5b5f602080835283518060208501525f5b8181101561153f57858101830151858201604001528201611523565b505f604082860101526040601f19601f830116850101925050509291505056fe496e73756666696369656e742066756e647320666f72206d696e7420616e6420726566756e64a2646970667358221220032560c749895d6ebe928888749e3dc34872a38c2ebfcb3a1ed95544f701040464736f6c63430008180033","linkReferences":{}},"methodIdentifiers":{"deployBountyContract()":"ed76c72c","implementation()":"5c60da1b"},"id":27}